{
  "transactions": [
    {
      "hash": "0xd8c5c0483162f814226f4e6c314436793d5e605f82f83d5aa8c32f2d82965aba",
      "transactionType": "CALL",
      "contractName": null,
      "contractAddress": "0x779877a7b0d9e8603169ddbd7836e478b4624789",
      "function": "transferAndCall(address,uint256,bytes)",
      "arguments": [
        "0x9DdfaCa8183c41ad55329BdeeD9F6A8d53168B1B",
        "3000000000000000000",
        "0xc347b7ba2be5857576ef85211ee2912ce74b03e3b94e02e44444ed6cd22a75c8"
      ],
      "transaction": {
        "from": "0xf87ff5bb6a8dd6f97307d61605d838ea7e22e3e6",
        "to": "0x779877a7b0d9e8603169ddbd7836e478b4624789",
        "gas": "0x14cbb",
        "value": "0x0",
        "input": "0x4000aea00000000000000000000000009ddfaca8183c41ad55329bdeed9f6a8d53168b1b00000000000000000000000000000000000000000000000029a2241af62c000000000000000000000000000000000000000000000000000000000000000000600000000000000000000000000000000000000000000000000000000000000020c347b7ba2be5857576ef85211ee2912ce74b03e3b94e02e44444ed6cd22a75c8",
        "nonce": "0xdf",
        "chainId": "0xaa36a7"
      },
      "additionalContracts": [],
      "isFixedGasLimit": false
    }
  ],
  "receipts": [
    {
      "status": "0x1",
      "cumulativeGasUsed": "0x13b0c37",
      "logs": [
        {
          "address": "0x779877a7b0d9e8603169ddbd7836e478b4624789",
          "topics": [
            "0xddf252ad1be2c89b69c2b068fc378daa952ba7f163c4a11628f55a4df523b3ef",
            "0x000000000000000000000000f87ff5bb6a8dd6f97307d61605d838ea7e22e3e6",
            "0x0000000000000000000000009ddfaca8183c41ad55329bdeed9f6a8d53168b1b"
          ],
          "data": "0x00000000000000000000000000000000000000000000000029a2241af62c0000",
          "blockHash": "0x1d2465abf9f48db499ffa4468b873c8aed8206da44ae19ead78018f5a8e6a153",
          "blockNumber": "0x854359",
          "blockTimestamp": "0x686faf54",
          "transactionHash": "0xd8c5c0483162f814226f4e6c314436793d5e605f82f83d5aa8c32f2d82965aba",
          "transactionIndex": "0xd6",
          "logIndex": "0x142",
          "removed": false
        },
        {
          "address": "0x779877a7b0d9e8603169ddbd7836e478b4624789",
          "topics": [
            "0xe19260aff97b920c7df27010903aeb9c8d2be5d310a2c67824cf3f15396e4c16",
            "0x000000000000000000000000f87ff5bb6a8dd6f97307d61605d838ea7e22e3e6",
            "0x0000000000000000000000009ddfaca8183c41ad55329bdeed9f6a8d53168b1b"
          ],
          "data": "0x00000000000000000000000000000000000000000000000029a2241af62c000000000000000000000000000000000000000000000000000000000000000000400000000000000000000000000000000000000000000000000000000000000020c347b7ba2be5857576ef85211ee2912ce74b03e3b94e02e44444ed6cd22a75c8",
          "blockHash": "0x1d2465abf9f48db499ffa4468b873c8aed8206da44ae19ead78018f5a8e6a153",
          "blockNumber": "0x854359",
          "blockTimestamp": "0x686faf54",
          "transactionHash": "0xd8c5c0483162f814226f4e6c314436793d5e605f82f83d5aa8c32f2d82965aba",
          "transactionIndex": "0xd6",
          "logIndex": "0x143",
          "removed": false
        },
        {
          "address": "0x9ddfaca8183c41ad55329bdeed9f6a8d53168b1b",
          "topics": [
            "0x1ced9348ff549fceab2ac57cd3a9de38edaaab274b725ee82c23e8fc8c4eec7a",
            "0xc347b7ba2be5857576ef85211ee2912ce74b03e3b94e02e44444ed6cd22a75c8"
          ],
          "data": "0x0000000000000000000000000000000000000000000000000429d069189e00000000000000000000000000000000000000000000000000002dcbf4840eca0000",
          "blockHash": "0x1d2465abf9f48db499ffa4468b873c8aed8206da44ae19ead78018f5a8e6a153",
          "blockNumber": "0x854359",
          "blockTimestamp": "0x686faf54",
          "transactionHash": "0xd8c5c0483162f814226f4e6c314436793d5e605f82f83d5aa8c32f2d82965aba",
          "transactionIndex": "0xd6",
          "logIndex": "0x144",
          "removed": false
        }
      ],
      "logsBloom": "0x00000004000000000000000000000000000000000020000000000000020000002000000000000000000000000000000000000000000000000000000000000000000000000000000000000008000000000000000000000000000020000020000008000000000000000000000000000000000000000000000000000010000040080000000000000000000000010000800000000020000000000000000000000000000004000000000000040000010000000000000000000000000004000000000000200002000000000000000000000000000000000000000100000000000000000010000000000000800000000000000000000000000000000000000000000000",
      "type": "0x2",
      "transactionHash": "0xd8c5c0483162f814226f4e6c314436793d5e605f82f83d5aa8c32f2d82965aba",
      "transactionIndex": "0xd6",
      "blockHash": "0x1d2465abf9f48db499ffa4468b873c8aed8206da44ae19ead78018f5a8e6a153",
      "blockNumber": "0x854359",
      "gasUsed": "0xf0e5",
      "effectiveGasPrice": "0x175951",
      "from": "0xf87ff5bb6a8dd6f97307d61605d838ea7e22e3e6",
      "to": "0x779877a7b0d9e8603169ddbd7836e478b4624789",
      "contractAddress": null
    }
  ],
  "libraries": [],
  "pending": [],
  "returns": {},
  "timestamp": 1752149845,
  "chain": 11155111,
  "commit": "219c05d"
}